{
  "address": "0xe777D31b07aC1c48CBaB1d4ed4d88D74B595Af6F",
  "abi": [
    {
      "inputs": [
        {
          "internalType": "uint256",
          "name": "_lockTime",
          "type": "uint256"
        },
        {
          "internalType": "address",
          "name": "dataFeedAddr",
          "type": "address"
        }
      ],
      "stateMutability": "nonpayable",
      "type": "constructor"
    },
    {
      "inputs": [],
      "name": "fund",
      "outputs": [],
      "stateMutability": "payable",
      "type": "function"
    },
    {
      "inputs": [
        {
          "internalType": "address",
          "name": "",
          "type": "address"
        }
      ],
      "name": "funderAmountMap",
      "outputs": [
        {
          "internalType": "uint256",
          "name": "",
          "type": "uint256"
        }
      ],
      "stateMutability": "view",
      "type": "function"
    },
    {
      "inputs": [],
      "name": "getChainlinkDataFeedLatestAnswer",
      "outputs": [
        {
          "internalType": "int256",
          "name": "",
          "type": "int256"
        }
      ],
      "stateMutability": "view",
      "type": "function"
    },
    {
      "inputs": [],
      "name": "getFund",
      "outputs": [],
      "stateMutability": "nonpayable",
      "type": "function"
    },
    {
      "inputs": [],
      "name": "getIsCashout",
      "outputs": [
        {
          "internalType": "bool",
          "name": "",
          "type": "bool"
        }
      ],
      "stateMutability": "view",
      "type": "function"
    },
    {
      "inputs": [],
      "name": "refund",
      "outputs": [],
      "stateMutability": "nonpayable",
      "type": "function"
    },
    {
      "inputs": [
        {
          "internalType": "address",
          "name": "addr",
          "type": "address"
        }
      ],
      "name": "setErc20Addr",
      "outputs": [],
      "stateMutability": "nonpayable",
      "type": "function"
    },
    {
      "inputs": [
        {
          "internalType": "address",
          "name": "addr",
          "type": "address"
        },
        {
          "internalType": "uint256",
          "name": "amount",
          "type": "uint256"
        }
      ],
      "name": "setFunderToAmount",
      "outputs": [],
      "stateMutability": "nonpayable",
      "type": "function"
    },
    {
      "inputs": [
        {
          "internalType": "address",
          "name": "newOwner",
          "type": "address"
        }
      ],
      "name": "transferOwnership",
      "outputs": [],
      "stateMutability": "nonpayable",
      "type": "function"
    }
  ],
  "transactionHash": "0x5ddd7786b276d9b6ee56678138afb32ffe416c4aeb37907d06739583885f6010",
  "args": [
    3600,
    "0x2c887B742418933c3c4B920697D1467C3994828c"
  ],
  "numDeployments": 1,
  "solcInputHash": "657fee542751aa6e8d6ed49f8302cb9b",
  "bytecode": "0x60806040526000600160006101000a81548160ff0219169083151502179055506110e06004553480156200003257600080fd5b506040516200141a3803806200141a833981810160405281019062000058919062000194565b806001806101000a81548173ffffffffffffffffffffffffffffffffffffffff021916908373ffffffffffffffffffffffffffffffffffffffff16021790555033600260006101000a81548173ffffffffffffffffffffffffffffffffffffffff021916908373ffffffffffffffffffffffffffffffffffffffff16021790555042600381905550816004819055505050620001db565b600080fd5b6000819050919050565b6200010981620000f4565b81146200011557600080fd5b50565b6000815190506200012981620000fe565b92915050565b600073ffffffffffffffffffffffffffffffffffffffff82169050919050565b60006200015c826200012f565b9050919050565b6200016e816200014f565b81146200017a57600080fd5b50565b6000815190506200018e8162000163565b92915050565b60008060408385031215620001ae57620001ad620000ef565b5b6000620001be8582860162000118565b9250506020620001d1858286016200017d565b9150509250929050565b61122f80620001eb6000396000f3fe6080604052600436106100865760003560e01c8063ac6224d811610059578063ac6224d81461010d578063b60d42881461014a578063bea4dfb514610154578063d39cf0061461017f578063f2fde38b146101a857610086565b806313ffff011461008b57806332912ca9146100b4578063590e1ae3146100df5780638edd6eb6146100f6575b600080fd5b34801561009757600080fd5b506100b260048036038101906100ad9190610ae2565b6101d1565b005b3480156100c057600080fd5b506100c96102a5565b6040516100d69190610b2a565b60405180910390f35b3480156100eb57600080fd5b506100f461034c565b005b34801561010257600080fd5b5061010b61055a565b005b34801561011957600080fd5b50610134600480360381019061012f9190610ae2565b6106f2565b6040516101419190610b5e565b60405180910390f35b61015261070a565b005b34801561016057600080fd5b50610169610805565b6040516101769190610b92565b60405180910390f35b34801561018b57600080fd5b506101a660048036038101906101a19190610bd9565b6108a4565b005b3480156101b457600080fd5b506101cf60048036038101906101ca9190610ae2565b61097b565b005b600260009054906101000a900473ffffffffffffffffffffffffffffffffffffffff1673ffffffffffffffffffffffffffffffffffffffff163373ffffffffffffffffffffffffffffffffffffffff1614610261576040517f08c379a000000000000000000000000000000000000000000000000000000000815260040161025890610c76565b60405180910390fd5b80600560006101000a81548173ffffffffffffffffffffffffffffffffffffffff021916908373ffffffffffffffffffffffffffffffffffffffff16021790555050565b6000600560009054906101000a900473ffffffffffffffffffffffffffffffffffffffff1673ffffffffffffffffffffffffffffffffffffffff163373ffffffffffffffffffffffffffffffffffffffff1614610337576040517f08c379a000000000000000000000000000000000000000000000000000000000815260040161032e90610ce2565b60405180910390fd5b600160009054906101000a900460ff16905090565b4260045460035461035d9190610d31565b101561039e576040517f08c379a000000000000000000000000000000000000000000000000000000000815260040161039590610db1565b60405180910390fd5b60001515600160009054906101000a900460ff161515146103f4576040517f08c379a00000000000000000000000000000000000000000000000000000000081526004016103eb90610e1d565b60405180910390fd5b670de0b6b3a764000061040647610a4f565b10610446576040517f08c379a000000000000000000000000000000000000000000000000000000000815260040161043d90610e89565b60405180910390fd5b60008060003373ffffffffffffffffffffffffffffffffffffffff1673ffffffffffffffffffffffffffffffffffffffff168152602001908152602001600020549050600081036104cc576040517f08c379a00000000000000000000000000000000000000000000000000000000081526004016104c390610ef5565b60405180910390fd5b3373ffffffffffffffffffffffffffffffffffffffff166108fc829081150290604051600060405180830381858888f19350505050158015610512573d6000803e3d6000fd5b5060008060003373ffffffffffffffffffffffffffffffffffffffff1673ffffffffffffffffffffffffffffffffffffffff1681526020019081526020016000208190555050565b4260045460035461056b9190610d31565b10156105ac576040517f08c379a00000000000000000000000000000000000000000000000000000000081526004016105a390610db1565b60405180910390fd5b600260009054906101000a900473ffffffffffffffffffffffffffffffffffffffff1673ffffffffffffffffffffffffffffffffffffffff163373ffffffffffffffffffffffffffffffffffffffff161461063c576040517f08c379a000000000000000000000000000000000000000000000000000000000815260040161063390610c76565b60405180910390fd5b670de0b6b3a764000061064e47610a4f565b101561068f576040517f08c379a000000000000000000000000000000000000000000000000000000000815260040161068690610f61565b60405180910390fd5b3373ffffffffffffffffffffffffffffffffffffffff166108fc479081150290604051600060405180830381858888f193505050501580156106d5573d6000803e3d6000fd5b5060018060006101000a81548160ff021916908315150217905550565b60006020528060005260406000206000915090505481565b670de0b6b3a764000061071c34610a4f565b101561075d576040517f08c379a000000000000000000000000000000000000000000000000000000000815260040161075490610fcd565b60405180910390fd5b4260045460035461076e9190610d31565b106107ae576040517f08c379a00000000000000000000000000000000000000000000000000000000081526004016107a590611039565b60405180910390fd5b346000803373ffffffffffffffffffffffffffffffffffffffff1673ffffffffffffffffffffffffffffffffffffffff16815260200190815260200160002060008282546107fc9190610d31565b92505081905550565b60008060018054906101000a900473ffffffffffffffffffffffffffffffffffffffff1673ffffffffffffffffffffffffffffffffffffffff1663feaf968c6040518163ffffffff1660e01b815260040160a060405180830381865afa158015610873573d6000803e3d6000fd5b505050506040513d601f19601f8201168201806040525081019061089791906110dc565b5050509150508091505090565b600560009054906101000a900473ffffffffffffffffffffffffffffffffffffffff1673ffffffffffffffffffffffffffffffffffffffff163373ffffffffffffffffffffffffffffffffffffffff1614610934576040517f08c379a000000000000000000000000000000000000000000000000000000000815260040161092b90610ce2565b60405180910390fd5b806000808473ffffffffffffffffffffffffffffffffffffffff1673ffffffffffffffffffffffffffffffffffffffff168152602001908152602001600020819055505050565b600260009054906101000a900473ffffffffffffffffffffffffffffffffffffffff1673ffffffffffffffffffffffffffffffffffffffff163373ffffffffffffffffffffffffffffffffffffffff1614610a0b576040517f08c379a0000000000000000000000000000000000000000000000000000000008152600401610a0290610c76565b60405180910390fd5b80600260006101000a81548173ffffffffffffffffffffffffffffffffffffffff021916908373ffffffffffffffffffffffffffffffffffffffff16021790555050565b600080610a5a610805565b90506305f5e1008184610a6d9190611157565b610a7791906111c8565b915050919050565b600080fd5b600073ffffffffffffffffffffffffffffffffffffffff82169050919050565b6000610aaf82610a84565b9050919050565b610abf81610aa4565b8114610aca57600080fd5b50565b600081359050610adc81610ab6565b92915050565b600060208284031215610af857610af7610a7f565b5b6000610b0684828501610acd565b91505092915050565b60008115159050919050565b610b2481610b0f565b82525050565b6000602082019050610b3f6000830184610b1b565b92915050565b6000819050919050565b610b5881610b45565b82525050565b6000602082019050610b736000830184610b4f565b92915050565b6000819050919050565b610b8c81610b79565b82525050565b6000602082019050610ba76000830184610b83565b92915050565b610bb681610b45565b8114610bc157600080fd5b50565b600081359050610bd381610bad565b92915050565b60008060408385031215610bf057610bef610a7f565b5b6000610bfe85828601610acd565b9250506020610c0f85828601610bc4565b9150509250929050565b600082825260208201905092915050565b7f6e6f74206f776e65722e00000000000000000000000000000000000000000000600082015250565b6000610c60600a83610c19565b9150610c6b82610c2a565b602082019050919050565b60006020820190508181036000830152610c8f81610c53565b9050919050565b7f6572726f72206973206e6f742065726332302e00000000000000000000000000600082015250565b6000610ccc601383610c19565b9150610cd782610c96565b602082019050919050565b60006020820190508181036000830152610cfb81610cbf565b9050919050565b7f4e487b7100000000000000000000000000000000000000000000000000000000600052601160045260246000fd5b6000610d3c82610b45565b9150610d4783610b45565b9250828201905080821115610d5f57610d5e610d02565b5b92915050565b7f77696e646f7773206e6f7420636c6f7365642e00000000000000000000000000600082015250565b6000610d9b601383610c19565b9150610da682610d65565b602082019050919050565b60006020820190508181036000830152610dca81610d8e565b9050919050565b7f70726f6a65637420697320656e61626c652e0000000000000000000000000000600082015250565b6000610e07601283610c19565b9150610e1282610dd1565b602082019050919050565b60006020820190508181036000830152610e3681610dfa565b9050919050565b7f746172676574206973206f6b2c6e6f7420636173686f75742e00000000000000600082015250565b6000610e73601983610c19565b9150610e7e82610e3d565b602082019050919050565b60006020820190508181036000830152610ea281610e66565b9050919050565b7f6e6f2072656368617267652e0000000000000000000000000000000000000000600082015250565b6000610edf600c83610c19565b9150610eea82610ea9565b602082019050919050565b60006020820190508181036000830152610f0e81610ed2565b9050919050565b7f74617267657420697320736d6172742c6e6f7420636173686f75742e00000000600082015250565b6000610f4b601c83610c19565b9150610f5682610f15565b602082019050919050565b60006020820190508181036000830152610f7a81610f3e565b9050919050565b7f6e6565642073656e64206d6f7265204554482e00000000000000000000000000600082015250565b6000610fb7601383610c19565b9150610fc282610f81565b602082019050919050565b60006020820190508181036000830152610fe681610faa565b9050919050565b7f70726f6a65637420697320636c6f73652e000000000000000000000000000000600082015250565b6000611023601183610c19565b915061102e82610fed565b602082019050919050565b6000602082019050818103600083015261105281611016565b9050919050565b600069ffffffffffffffffffff82169050919050565b61107881611059565b811461108357600080fd5b50565b6000815190506110958161106f565b92915050565b6110a481610b79565b81146110af57600080fd5b50565b6000815190506110c18161109b565b92915050565b6000815190506110d681610bad565b92915050565b600080600080600060a086880312156110f8576110f7610a7f565b5b600061110688828901611086565b9550506020611117888289016110b2565b9450506040611128888289016110c7565b9350506060611139888289016110c7565b925050608061114a88828901611086565b9150509295509295909350565b600061116282610b45565b915061116d83610b45565b925082820261117b81610b45565b9150828204841483151761119257611191610d02565b5b5092915050565b7f4e487b7100000000000000000000000000000000000000000000000000000000600052601260045260246000fd5b60006111d382610b45565b91506111de83610b45565b9250826111ee576111ed611199565b5b82820490509291505056fea264697066735822122023b965f455ee2b663a71f06d3b3b7704c900c72fb651210fd69c71b02ae438c364736f6c63430008180033",
  "devdoc": {
    "kind": "dev",
    "methods": {},
    "version": 1
  },
  "userdoc": {
    "kind": "user",
    "methods": {},
    "version": 1
  },
  "storageLayout": {
    "storage": [
      {
        "astId": 1030,
        "contract": "contracts/FundMe.sol:FundMe",
        "label": "funderAmountMap",
        "offset": 0,
        "slot": "0",
        "type": "t_mapping(t_address,t_uint256)"
      },
      {
        "astId": 1041,
        "contract": "contracts/FundMe.sol:FundMe",
        "label": "isCashout",
        "offset": 0,
        "slot": "1",
        "type": "t_bool"
      },
      {
        "astId": 1044,
        "contract": "contracts/FundMe.sol:FundMe",
        "label": "dataFeed",
        "offset": 1,
        "slot": "1",
        "type": "t_contract(AggregatorV3Interface)104"
      },
      {
        "astId": 1046,
        "contract": "contracts/FundMe.sol:FundMe",
        "label": "owner",
        "offset": 0,
        "slot": "2",
        "type": "t_address"
      },
      {
        "astId": 1048,
        "contract": "contracts/FundMe.sol:FundMe",
        "label": "deploymentTimestamp",
        "offset": 0,
        "slot": "3",
        "type": "t_uint256"
      },
      {
        "astId": 1055,
        "contract": "contracts/FundMe.sol:FundMe",
        "label": "lockTime",
        "offset": 0,
        "slot": "4",
        "type": "t_uint256"
      },
      {
        "astId": 1057,
        "contract": "contracts/FundMe.sol:FundMe",
        "label": "erc20Addr",
        "offset": 0,
        "slot": "5",
        "type": "t_address"
      }
    ],
    "types": {
      "t_address": {
        "encoding": "inplace",
        "label": "address",
        "numberOfBytes": "20"
      },
      "t_bool": {
        "encoding": "inplace",
        "label": "bool",
        "numberOfBytes": "1"
      },
      "t_contract(AggregatorV3Interface)104": {
        "encoding": "inplace",
        "label": "contract AggregatorV3Interface",
        "numberOfBytes": "20"
      },
      "t_mapping(t_address,t_uint256)": {
        "encoding": "mapping",
        "key": "t_address",
        "label": "mapping(address => uint256)",
        "numberOfBytes": "32",
        "value": "t_uint256"
      },
      "t_uint256": {
        "encoding": "inplace",
        "label": "uint256",
        "numberOfBytes": "32"
      }
    }
  }
}