{
  "address": "0x8539823F73B098f60192eB422743c0e3E556D25f",
  "abi": [
    {
      "inputs": [
        {
          "internalType": "uint256",
          "name": "_lockTime",
          "type": "uint256"
        },
        {
          "internalType": "address",
          "name": "dataFeedAddr",
          "type": "address"
        }
      ],
      "stateMutability": "nonpayable",
      "type": "constructor"
    },
    {
      "inputs": [],
      "name": "dataFeed",
      "outputs": [
        {
          "internalType": "contract AggregatorV3Interface",
          "name": "",
          "type": "address"
        }
      ],
      "stateMutability": "view",
      "type": "function"
    },
    {
      "inputs": [],
      "name": "fund",
      "outputs": [],
      "stateMutability": "payable",
      "type": "function"
    },
    {
      "inputs": [
        {
          "internalType": "address",
          "name": "",
          "type": "address"
        }
      ],
      "name": "funderAmountMap",
      "outputs": [
        {
          "internalType": "uint256",
          "name": "",
          "type": "uint256"
        }
      ],
      "stateMutability": "view",
      "type": "function"
    },
    {
      "inputs": [],
      "name": "getChainlinkDataFeedLatestAnswer",
      "outputs": [
        {
          "internalType": "int256",
          "name": "",
          "type": "int256"
        }
      ],
      "stateMutability": "view",
      "type": "function"
    },
    {
      "inputs": [],
      "name": "getFund",
      "outputs": [],
      "stateMutability": "nonpayable",
      "type": "function"
    },
    {
      "inputs": [],
      "name": "getIsCashout",
      "outputs": [
        {
          "internalType": "bool",
          "name": "",
          "type": "bool"
        }
      ],
      "stateMutability": "view",
      "type": "function"
    },
    {
      "inputs": [],
      "name": "refund",
      "outputs": [],
      "stateMutability": "nonpayable",
      "type": "function"
    },
    {
      "inputs": [
        {
          "internalType": "address",
          "name": "addr",
          "type": "address"
        }
      ],
      "name": "setErc20Addr",
      "outputs": [],
      "stateMutability": "nonpayable",
      "type": "function"
    },
    {
      "inputs": [
        {
          "internalType": "address",
          "name": "addr",
          "type": "address"
        },
        {
          "internalType": "uint256",
          "name": "amount",
          "type": "uint256"
        }
      ],
      "name": "setFunderToAmount",
      "outputs": [],
      "stateMutability": "nonpayable",
      "type": "function"
    },
    {
      "inputs": [
        {
          "internalType": "address",
          "name": "newOwner",
          "type": "address"
        }
      ],
      "name": "transferOwnership",
      "outputs": [],
      "stateMutability": "nonpayable",
      "type": "function"
    }
  ],
  "transactionHash": "0xa3b75f8c811b73d34e728c95277b0f576d91ba35a7952dabd7c6b17c6274a6da",
  "args": [
    180,
    "0x5f4ec3df9cbd43714fe2740f5e3616155c5b8419"
  ],
  "numDeployments": 2,
  "solcInputHash": "ef3ed74acbbe69555e9c3c259105f2fd",
  "bytecode": "0x60806040526000600160006101000a81548160ff0219169083151502179055506110e06004553480156200003257600080fd5b50604051620014ee380380620014ee833981810160405281019062000058919062000194565b806001806101000a81548173ffffffffffffffffffffffffffffffffffffffff021916908373ffffffffffffffffffffffffffffffffffffffff16021790555033600260006101000a81548173ffffffffffffffffffffffffffffffffffffffff021916908373ffffffffffffffffffffffffffffffffffffffff16021790555042600381905550816004819055505050620001db565b600080fd5b6000819050919050565b6200010981620000f4565b81146200011557600080fd5b50565b6000815190506200012981620000fe565b92915050565b600073ffffffffffffffffffffffffffffffffffffffff82169050919050565b60006200015c826200012f565b9050919050565b6200016e816200014f565b81146200017a57600080fd5b50565b6000815190506200018e8162000163565b92915050565b60008060408385031215620001ae57620001ad620000ef565b5b6000620001be8582860162000118565b9250506020620001d1858286016200017d565b9150509250929050565b61130380620001eb6000396000f3fe6080604052600436106100915760003560e01c8063ac6224d811610059578063ac6224d814610143578063b60d428814610180578063bea4dfb51461018a578063d39cf006146101b5578063f2fde38b146101de57610091565b806313ffff011461009657806332912ca9146100bf578063590e1ae3146100ea5780638edd6eb6146101015780639e42ff9014610118575b600080fd5b3480156100a257600080fd5b506100bd60048036038101906100b89190610b3c565b610207565b005b3480156100cb57600080fd5b506100d46102db565b6040516100e19190610b84565b60405180910390f35b3480156100f657600080fd5b506100ff610382565b005b34801561010d57600080fd5b50610116610590565b005b34801561012457600080fd5b5061012d610728565b60405161013a9190610bfe565b60405180910390f35b34801561014f57600080fd5b5061016a60048036038101906101659190610b3c565b61074c565b6040516101779190610c32565b60405180910390f35b610188610764565b005b34801561019657600080fd5b5061019f61085f565b6040516101ac9190610c66565b60405180910390f35b3480156101c157600080fd5b506101dc60048036038101906101d79190610cad565b6108fe565b005b3480156101ea57600080fd5b5061020560048036038101906102009190610b3c565b6109d5565b005b600260009054906101000a900473ffffffffffffffffffffffffffffffffffffffff1673ffffffffffffffffffffffffffffffffffffffff163373ffffffffffffffffffffffffffffffffffffffff1614610297576040517f08c379a000000000000000000000000000000000000000000000000000000000815260040161028e90610d4a565b60405180910390fd5b80600560006101000a81548173ffffffffffffffffffffffffffffffffffffffff021916908373ffffffffffffffffffffffffffffffffffffffff16021790555050565b6000600560009054906101000a900473ffffffffffffffffffffffffffffffffffffffff1673ffffffffffffffffffffffffffffffffffffffff163373ffffffffffffffffffffffffffffffffffffffff161461036d576040517f08c379a000000000000000000000000000000000000000000000000000000000815260040161036490610db6565b60405180910390fd5b600160009054906101000a900460ff16905090565b426004546003546103939190610e05565b10156103d4576040517f08c379a00000000000000000000000000000000000000000000000000000000081526004016103cb90610e85565b60405180910390fd5b60001515600160009054906101000a900460ff1615151461042a576040517f08c379a000000000000000000000000000000000000000000000000000000000815260040161042190610ef1565b60405180910390fd5b670de0b6b3a764000061043c47610aa9565b1061047c576040517f08c379a000000000000000000000000000000000000000000000000000000000815260040161047390610f5d565b60405180910390fd5b60008060003373ffffffffffffffffffffffffffffffffffffffff1673ffffffffffffffffffffffffffffffffffffffff16815260200190815260200160002054905060008103610502576040517f08c379a00000000000000000000000000000000000000000000000000000000081526004016104f990610fc9565b60405180910390fd5b3373ffffffffffffffffffffffffffffffffffffffff166108fc829081150290604051600060405180830381858888f19350505050158015610548573d6000803e3d6000fd5b5060008060003373ffffffffffffffffffffffffffffffffffffffff1673ffffffffffffffffffffffffffffffffffffffff1681526020019081526020016000208190555050565b426004546003546105a19190610e05565b10156105e2576040517f08c379a00000000000000000000000000000000000000000000000000000000081526004016105d990610e85565b60405180910390fd5b600260009054906101000a900473ffffffffffffffffffffffffffffffffffffffff1673ffffffffffffffffffffffffffffffffffffffff163373ffffffffffffffffffffffffffffffffffffffff1614610672576040517f08c379a000000000000000000000000000000000000000000000000000000000815260040161066990610d4a565b60405180910390fd5b670de0b6b3a764000061068447610aa9565b10156106c5576040517f08c379a00000000000000000000000000000000000000000000000000000000081526004016106bc90611035565b60405180910390fd5b3373ffffffffffffffffffffffffffffffffffffffff166108fc479081150290604051600060405180830381858888f1935050505015801561070b573d6000803e3d6000fd5b5060018060006101000a81548160ff021916908315150217905550565b60018054906101000a900473ffffffffffffffffffffffffffffffffffffffff1681565b60006020528060005260406000206000915090505481565b670de0b6b3a764000061077634610aa9565b10156107b7576040517f08c379a00000000000000000000000000000000000000000000000000000000081526004016107ae906110a1565b60405180910390fd5b426004546003546107c89190610e05565b10610808576040517f08c379a00000000000000000000000000000000000000000000000000000000081526004016107ff9061110d565b60405180910390fd5b346000803373ffffffffffffffffffffffffffffffffffffffff1673ffffffffffffffffffffffffffffffffffffffff16815260200190815260200160002060008282546108569190610e05565b92505081905550565b60008060018054906101000a900473ffffffffffffffffffffffffffffffffffffffff1673ffffffffffffffffffffffffffffffffffffffff1663feaf968c6040518163ffffffff1660e01b815260040160a060405180830381865afa1580156108cd573d6000803e3d6000fd5b505050506040513d601f19601f820116820180604052508101906108f191906111b0565b5050509150508091505090565b600560009054906101000a900473ffffffffffffffffffffffffffffffffffffffff1673ffffffffffffffffffffffffffffffffffffffff163373ffffffffffffffffffffffffffffffffffffffff161461098e576040517f08c379a000000000000000000000000000000000000000000000000000000000815260040161098590610db6565b60405180910390fd5b806000808473ffffffffffffffffffffffffffffffffffffffff1673ffffffffffffffffffffffffffffffffffffffff168152602001908152602001600020819055505050565b600260009054906101000a900473ffffffffffffffffffffffffffffffffffffffff1673ffffffffffffffffffffffffffffffffffffffff163373ffffffffffffffffffffffffffffffffffffffff1614610a65576040517f08c379a0000000000000000000000000000000000000000000000000000000008152600401610a5c90610d4a565b60405180910390fd5b80600260006101000a81548173ffffffffffffffffffffffffffffffffffffffff021916908373ffffffffffffffffffffffffffffffffffffffff16021790555050565b600080610ab461085f565b90506305f5e1008184610ac7919061122b565b610ad1919061129c565b915050919050565b600080fd5b600073ffffffffffffffffffffffffffffffffffffffff82169050919050565b6000610b0982610ade565b9050919050565b610b1981610afe565b8114610b2457600080fd5b50565b600081359050610b3681610b10565b92915050565b600060208284031215610b5257610b51610ad9565b5b6000610b6084828501610b27565b91505092915050565b60008115159050919050565b610b7e81610b69565b82525050565b6000602082019050610b996000830184610b75565b92915050565b6000819050919050565b6000610bc4610bbf610bba84610ade565b610b9f565b610ade565b9050919050565b6000610bd682610ba9565b9050919050565b6000610be882610bcb565b9050919050565b610bf881610bdd565b82525050565b6000602082019050610c136000830184610bef565b92915050565b6000819050919050565b610c2c81610c19565b82525050565b6000602082019050610c476000830184610c23565b92915050565b6000819050919050565b610c6081610c4d565b82525050565b6000602082019050610c7b6000830184610c57565b92915050565b610c8a81610c19565b8114610c9557600080fd5b50565b600081359050610ca781610c81565b92915050565b60008060408385031215610cc457610cc3610ad9565b5b6000610cd285828601610b27565b9250506020610ce385828601610c98565b9150509250929050565b600082825260208201905092915050565b7f6e6f74206f776e65722e00000000000000000000000000000000000000000000600082015250565b6000610d34600a83610ced565b9150610d3f82610cfe565b602082019050919050565b60006020820190508181036000830152610d6381610d27565b9050919050565b7f6572726f72206973206e6f742065726332302e00000000000000000000000000600082015250565b6000610da0601383610ced565b9150610dab82610d6a565b602082019050919050565b60006020820190508181036000830152610dcf81610d93565b9050919050565b7f4e487b7100000000000000000000000000000000000000000000000000000000600052601160045260246000fd5b6000610e1082610c19565b9150610e1b83610c19565b9250828201905080821115610e3357610e32610dd6565b5b92915050565b7f77696e646f7773206e6f7420636c6f7365642e00000000000000000000000000600082015250565b6000610e6f601383610ced565b9150610e7a82610e39565b602082019050919050565b60006020820190508181036000830152610e9e81610e62565b9050919050565b7f70726f6a65637420697320656e61626c652e0000000000000000000000000000600082015250565b6000610edb601283610ced565b9150610ee682610ea5565b602082019050919050565b60006020820190508181036000830152610f0a81610ece565b9050919050565b7f746172676574206973206f6b2c6e6f7420636173686f75742e00000000000000600082015250565b6000610f47601983610ced565b9150610f5282610f11565b602082019050919050565b60006020820190508181036000830152610f7681610f3a565b9050919050565b7f6e6f2072656368617267652e0000000000000000000000000000000000000000600082015250565b6000610fb3600c83610ced565b9150610fbe82610f7d565b602082019050919050565b60006020820190508181036000830152610fe281610fa6565b9050919050565b7f74617267657420697320736d6172742c6e6f7420636173686f75742e00000000600082015250565b600061101f601c83610ced565b915061102a82610fe9565b602082019050919050565b6000602082019050818103600083015261104e81611012565b9050919050565b7f6e6565642073656e64206d6f7265204554482e00000000000000000000000000600082015250565b600061108b601383610ced565b915061109682611055565b602082019050919050565b600060208201905081810360008301526110ba8161107e565b9050919050565b7f70726f6a65637420697320636c6f73652e000000000000000000000000000000600082015250565b60006110f7601183610ced565b9150611102826110c1565b602082019050919050565b60006020820190508181036000830152611126816110ea565b9050919050565b600069ffffffffffffffffffff82169050919050565b61114c8161112d565b811461115757600080fd5b50565b60008151905061116981611143565b92915050565b61117881610c4d565b811461118357600080fd5b50565b6000815190506111958161116f565b92915050565b6000815190506111aa81610c81565b92915050565b600080600080600060a086880312156111cc576111cb610ad9565b5b60006111da8882890161115a565b95505060206111eb88828901611186565b94505060406111fc8882890161119b565b935050606061120d8882890161119b565b925050608061121e8882890161115a565b9150509295509295909350565b600061123682610c19565b915061124183610c19565b925082820261124f81610c19565b9150828204841483151761126657611265610dd6565b5b5092915050565b7f4e487b7100000000000000000000000000000000000000000000000000000000600052601260045260246000fd5b60006112a782610c19565b91506112b283610c19565b9250826112c2576112c161126d565b5b82820490509291505056fea264697066735822122031bee98dd746fe28ce4594af0cc4446c7ea27a7e53b824c111d9747d74fc54c164736f6c63430008180033",
  "devdoc": {
    "kind": "dev",
    "methods": {},
    "version": 1
  },
  "userdoc": {
    "kind": "user",
    "methods": {},
    "version": 1
  },
  "storageLayout": {
    "storage": [
      {
        "astId": 765,
        "contract": "contracts/FundMe.sol:FundMe",
        "label": "funderAmountMap",
        "offset": 0,
        "slot": "0",
        "type": "t_mapping(t_address,t_uint256)"
      },
      {
        "astId": 776,
        "contract": "contracts/FundMe.sol:FundMe",
        "label": "isCashout",
        "offset": 0,
        "slot": "1",
        "type": "t_bool"
      },
      {
        "astId": 779,
        "contract": "contracts/FundMe.sol:FundMe",
        "label": "dataFeed",
        "offset": 1,
        "slot": "1",
        "type": "t_contract(AggregatorV3Interface)45"
      },
      {
        "astId": 781,
        "contract": "contracts/FundMe.sol:FundMe",
        "label": "owner",
        "offset": 0,
        "slot": "2",
        "type": "t_address"
      },
      {
        "astId": 783,
        "contract": "contracts/FundMe.sol:FundMe",
        "label": "deploymentTimestamp",
        "offset": 0,
        "slot": "3",
        "type": "t_uint256"
      },
      {
        "astId": 790,
        "contract": "contracts/FundMe.sol:FundMe",
        "label": "lockTime",
        "offset": 0,
        "slot": "4",
        "type": "t_uint256"
      },
      {
        "astId": 792,
        "contract": "contracts/FundMe.sol:FundMe",
        "label": "erc20Addr",
        "offset": 0,
        "slot": "5",
        "type": "t_address"
      }
    ],
    "types": {
      "t_address": {
        "encoding": "inplace",
        "label": "address",
        "numberOfBytes": "20"
      },
      "t_bool": {
        "encoding": "inplace",
        "label": "bool",
        "numberOfBytes": "1"
      },
      "t_contract(AggregatorV3Interface)45": {
        "encoding": "inplace",
        "label": "contract AggregatorV3Interface",
        "numberOfBytes": "20"
      },
      "t_mapping(t_address,t_uint256)": {
        "encoding": "mapping",
        "key": "t_address",
        "label": "mapping(address => uint256)",
        "numberOfBytes": "32",
        "value": "t_uint256"
      },
      "t_uint256": {
        "encoding": "inplace",
        "label": "uint256",
        "numberOfBytes": "32"
      }
    }
  }
}